{
  "contractName": "Payroll",
  "abi": [
    {
      "constant": true,
      "inputs": [],
      "name": "owner",
      "outputs": [
        {
          "name": "",
          "type": "address"
        }
      ],
      "payable": false,
      "stateMutability": "view",
      "type": "function"
    },
    {
      "constant": true,
      "inputs": [
        {
          "name": "",
          "type": "address"
        }
      ],
      "name": "employees",
      "outputs": [
        {
          "name": "id",
          "type": "address"
        },
        {
          "name": "salary",
          "type": "uint256"
        },
        {
          "name": "lastPayday",
          "type": "uint256"
        }
      ],
      "payable": false,
      "stateMutability": "view",
      "type": "function"
    },
    {
      "constant": false,
      "inputs": [
        {
          "name": "newOwner",
          "type": "address"
        }
      ],
      "name": "transferOwnership",
      "outputs": [],
      "payable": false,
      "stateMutability": "nonpayable",
      "type": "function"
    },
    {
      "anonymous": false,
      "inputs": [
        {
          "indexed": true,
          "name": "previousOwner",
          "type": "address"
        },
        {
          "indexed": true,
          "name": "newOwner",
          "type": "address"
        }
      ],
      "name": "OwnershipTransferred",
      "type": "event"
    },
    {
      "constant": false,
      "inputs": [],
      "name": "addFund",
      "outputs": [
        {
          "name": "",
          "type": "uint256"
        }
      ],
      "payable": true,
      "stateMutability": "payable",
      "type": "function"
    },
    {
      "constant": true,
      "inputs": [],
      "name": "calculateRunway",
      "outputs": [
        {
          "name": "",
          "type": "uint256"
        }
      ],
      "payable": false,
      "stateMutability": "view",
      "type": "function"
    },
    {
      "constant": true,
      "inputs": [],
      "name": "hasEnoughFund",
      "outputs": [
        {
          "name": "",
          "type": "bool"
        }
      ],
      "payable": false,
      "stateMutability": "view",
      "type": "function"
    },
    {
      "constant": false,
      "inputs": [
        {
          "name": "emplid",
          "type": "address"
        },
        {
          "name": "sal",
          "type": "uint256"
        }
      ],
      "name": "addEmployee",
      "outputs": [],
      "payable": false,
      "stateMutability": "nonpayable",
      "type": "function"
    },
    {
      "constant": false,
      "inputs": [
        {
          "name": "emplid",
          "type": "address"
        }
      ],
      "name": "removeEmployee",
      "outputs": [],
      "payable": false,
      "stateMutability": "nonpayable",
      "type": "function"
    },
    {
      "constant": false,
      "inputs": [],
      "name": "getPaid",
      "outputs": [],
      "payable": false,
      "stateMutability": "nonpayable",
      "type": "function"
    },
    {
      "constant": false,
      "inputs": [
        {
          "name": "emplid",
          "type": "address"
        },
        {
          "name": "Sal",
          "type": "uint256"
        }
      ],
      "name": "updateEmployee",
      "outputs": [],
      "payable": false,
      "stateMutability": "nonpayable",
      "type": "function"
    },
    {
      "constant": true,
      "inputs": [
        {
          "name": "emplid",
          "type": "address"
        }
      ],
      "name": "checkEmployee",
      "outputs": [
        {
          "name": "salary",
          "type": "uint256"
        },
        {
          "name": "lastPayday",
          "type": "uint256"
        }
      ],
      "payable": false,
      "stateMutability": "view",
      "type": "function"
    },
    {
      "constant": false,
      "inputs": [
        {
          "name": "newEmplid",
          "type": "address"
        }
      ],
      "name": "changePaymentAddress",
      "outputs": [],
      "payable": false,
      "stateMutability": "nonpayable",
      "type": "function"
    }
  ],
  "bytecode": "0x60606040526000600255336000806101000a81548173ffffffffffffffffffffffffffffffffffffffff021916908373ffffffffffffffffffffffffffffffffffffffff16021790555061142e806100586000396000f3006060604052600436106100ba576000357c0100000000000000000000000000000000000000000000000000000000900463ffffffff16806323fed09e146100bf5780634ec19512146100ec5780635e91d8ec146101155780637124d613146101575780637cf562b7146101905780638da5cb5b146101e4578063a2f09dfa14610239578063cf41d6f814610257578063d06789471461026c578063d108177a146102f3578063e7fd9a131461032c578063f2fde38b1461036e575b600080fd5b34156100ca57600080fd5b6100d26103a7565b604051808215151515815260200191505060405180910390f35b34156100f757600080fd5b6100ff6103ba565b6040518082815260200191505060405180910390f35b341561012057600080fd5b610155600480803573ffffffffffffffffffffffffffffffffffffffff169060200190919080359060200190919050506103ed565b005b341561016257600080fd5b61018e600480803573ffffffffffffffffffffffffffffffffffffffff169060200190919050506106f4565b005b341561019b57600080fd5b6101c7600480803573ffffffffffffffffffffffffffffffffffffffff169060200190919050506108d5565b604051808381526020018281526020019250505060405180910390f35b34156101ef57600080fd5b6101f761092f565b604051808273ffffffffffffffffffffffffffffffffffffffff1673ffffffffffffffffffffffffffffffffffffffff16815260200191505060405180910390f35b610241610954565b6040518082815260200191505060405180910390f35b341561026257600080fd5b61026a610973565b005b341561027757600080fd5b6102a3600480803573ffffffffffffffffffffffffffffffffffffffff16906020019091905050610c11565b604051808473ffffffffffffffffffffffffffffffffffffffff1673ffffffffffffffffffffffffffffffffffffffff168152602001838152602001828152602001935050505060405180910390f35b34156102fe57600080fd5b61032a600480803573ffffffffffffffffffffffffffffffffffffffff16906020019091905050610c5b565b005b341561033757600080fd5b61036c600480803573ffffffffffffffffffffffffffffffffffffffff16906020019091908035906020019091905050610f1d565b005b341561037957600080fd5b6103a5600480803573ffffffffffffffffffffffffffffffffffffffff1690602001909190505061114a565b005b600060016103b36103ba565b1015905090565b60006103e86002543073ffffffffffffffffffffffffffffffffffffffff163161129f90919063ffffffff16565b905090565b60008060009054906101000a900473ffffffffffffffffffffffffffffffffffffffff1673ffffffffffffffffffffffffffffffffffffffff163373ffffffffffffffffffffffffffffffffffffffff1614151561044a57600080fd5b826000600360008373ffffffffffffffffffffffffffffffffffffffff1673ffffffffffffffffffffffffffffffffffffffff168152602001908152602001600020905060008160000160009054906101000a900473ffffffffffffffffffffffffffffffffffffffff1673ffffffffffffffffffffffffffffffffffffffff16141515156104d557fe5b600360008673ffffffffffffffffffffffffffffffffffffffff1673ffffffffffffffffffffffffffffffffffffffff16815260200190815260200160002092506105d3600360008773ffffffffffffffffffffffffffffffffffffffff1673ffffffffffffffffffffffffffffffffffffffff168152602001908152602001600020606060405190810160405290816000820160009054906101000a900473ffffffffffffffffffffffffffffffffffffffff1673ffffffffffffffffffffffffffffffffffffffff1673ffffffffffffffffffffffffffffffffffffffff168152602001600182015481526020016002820154815250506112ba565b61062a600360008773ffffffffffffffffffffffffffffffffffffffff1673ffffffffffffffffffffffffffffffffffffffff1681526020019081526020016000206001015460025461135790919063ffffffff16565b60028190555061064f670de0b6b3a7640000850260025461137090919063ffffffff16565b600281905550670de0b6b3a76400008402600360008773ffffffffffffffffffffffffffffffffffffffff1673ffffffffffffffffffffffffffffffffffffffff1681526020019081526020016000206001018190555042600360008773ffffffffffffffffffffffffffffffffffffffff1673ffffffffffffffffffffffffffffffffffffffff168152602001908152602001600020600201819055505050505050565b6000336000600360008373ffffffffffffffffffffffffffffffffffffffff1673ffffffffffffffffffffffffffffffffffffffff168152602001908152602001600020905060008160000160009054906101000a900473ffffffffffffffffffffffffffffffffffffffff1673ffffffffffffffffffffffffffffffffffffffff161415151561078157fe5b836000600360008373ffffffffffffffffffffffffffffffffffffffff1673ffffffffffffffffffffffffffffffffffffffff168152602001908152602001600020905060008160000160009054906101000a900473ffffffffffffffffffffffffffffffffffffffff1673ffffffffffffffffffffffffffffffffffffffff1614151561080b57fe5b600360003373ffffffffffffffffffffffffffffffffffffffff1673ffffffffffffffffffffffffffffffffffffffff168152602001908152602001600020945085600360003373ffffffffffffffffffffffffffffffffffffffff1673ffffffffffffffffffffffffffffffffffffffff16815260200190815260200160002060000160006101000a81548173ffffffffffffffffffffffffffffffffffffffff021916908373ffffffffffffffffffffffffffffffffffffffff160217905550505050505050565b6000806000600360008573ffffffffffffffffffffffffffffffffffffffff1673ffffffffffffffffffffffffffffffffffffffff1681526020019081526020016000209050806001015492508060020154915050915091565b6000809054906101000a900473ffffffffffffffffffffffffffffffffffffffff1681565b60003073ffffffffffffffffffffffffffffffffffffffff1631905090565b600080336000600360008373ffffffffffffffffffffffffffffffffffffffff1673ffffffffffffffffffffffffffffffffffffffff168152602001908152602001600020905060008160000160009054906101000a900473ffffffffffffffffffffffffffffffffffffffff1673ffffffffffffffffffffffffffffffffffffffff1614151515610a0157fe5b600360003373ffffffffffffffffffffffffffffffffffffffff1673ffffffffffffffffffffffffffffffffffffffff1681526020019081526020016000209350600a846002015401925042831115610a5957600080fd5b610ad884606060405190810160405290816000820160009054906101000a900473ffffffffffffffffffffffffffffffffffffffff1673ffffffffffffffffffffffffffffffffffffffff1673ffffffffffffffffffffffffffffffffffffffff1681526020016001820154815260200160028201548152505061138e565b1515610ae057fe5b82600360003373ffffffffffffffffffffffffffffffffffffffff1673ffffffffffffffffffffffffffffffffffffffff16815260200190815260200160002060020181905550600360003373ffffffffffffffffffffffffffffffffffffffff1673ffffffffffffffffffffffffffffffffffffffff16815260200190815260200160002060000160009054906101000a900473ffffffffffffffffffffffffffffffffffffffff1673ffffffffffffffffffffffffffffffffffffffff166108fc600360003373ffffffffffffffffffffffffffffffffffffffff1673ffffffffffffffffffffffffffffffffffffffff168152602001908152602001600020600101549081150290604051600060405180830381858888f193505050501515610c0b57600080fd5b50505050565b60036020528060005260406000206000915090508060000160009054906101000a900473ffffffffffffffffffffffffffffffffffffffff16908060010154908060020154905083565b60008060009054906101000a900473ffffffffffffffffffffffffffffffffffffffff1673ffffffffffffffffffffffffffffffffffffffff163373ffffffffffffffffffffffffffffffffffffffff16141515610cb857600080fd5b816000600360008373ffffffffffffffffffffffffffffffffffffffff1673ffffffffffffffffffffffffffffffffffffffff168152602001908152602001600020905060008160000160009054906101000a900473ffffffffffffffffffffffffffffffffffffffff1673ffffffffffffffffffffffffffffffffffffffff1614151515610d4357fe5b600360008573ffffffffffffffffffffffffffffffffffffffff1673ffffffffffffffffffffffffffffffffffffffff1681526020019081526020016000209250610e41600360008673ffffffffffffffffffffffffffffffffffffffff1673ffffffffffffffffffffffffffffffffffffffff168152602001908152602001600020606060405190810160405290816000820160009054906101000a900473ffffffffffffffffffffffffffffffffffffffff1673ffffffffffffffffffffffffffffffffffffffff1673ffffffffffffffffffffffffffffffffffffffff168152602001600182015481526020016002820154815250506112ba565b610e98600360008673ffffffffffffffffffffffffffffffffffffffff1673ffffffffffffffffffffffffffffffffffffffff1681526020019081526020016000206001015460025461135790919063ffffffff16565b600281905550600360008573ffffffffffffffffffffffffffffffffffffffff1673ffffffffffffffffffffffffffffffffffffffff168152602001908152602001600020600080820160006101000a81549073ffffffffffffffffffffffffffffffffffffffff021916905560018201600090556002820160009055505050505050565b60008060009054906101000a900473ffffffffffffffffffffffffffffffffffffffff1673ffffffffffffffffffffffffffffffffffffffff163373ffffffffffffffffffffffffffffffffffffffff16141515610f7a57600080fd5b826000600360008373ffffffffffffffffffffffffffffffffffffffff1673ffffffffffffffffffffffffffffffffffffffff168152602001908152602001600020905060008160000160009054906101000a900473ffffffffffffffffffffffffffffffffffffffff1673ffffffffffffffffffffffffffffffffffffffff1614151561100457fe5b600360008673ffffffffffffffffffffffffffffffffffffffff1673ffffffffffffffffffffffffffffffffffffffff1681526020019081526020016000209250611064670de0b6b3a7640000850260025461137090919063ffffffff16565b6002819055506060604051908101604052808673ffffffffffffffffffffffffffffffffffffffff168152602001670de0b6b3a76400008602815260200142815250600360008773ffffffffffffffffffffffffffffffffffffffff1673ffffffffffffffffffffffffffffffffffffffff16815260200190815260200160002060008201518160000160006101000a81548173ffffffffffffffffffffffffffffffffffffffff021916908373ffffffffffffffffffffffffffffffffffffffff16021790555060208201518160010155604082015181600201559050505050505050565b6000809054906101000a900473ffffffffffffffffffffffffffffffffffffffff1673ffffffffffffffffffffffffffffffffffffffff163373ffffffffffffffffffffffffffffffffffffffff161415156111a557600080fd5b600073ffffffffffffffffffffffffffffffffffffffff168173ffffffffffffffffffffffffffffffffffffffff16141515156111e157600080fd5b8073ffffffffffffffffffffffffffffffffffffffff166000809054906101000a900473ffffffffffffffffffffffffffffffffffffffff1673ffffffffffffffffffffffffffffffffffffffff167f8be0079c531659141344cd1fd0a4f28419497f9722a3daafe3b4186f6b6457e060405160405180910390a3806000806101000a81548173ffffffffffffffffffffffffffffffffffffffff021916908373ffffffffffffffffffffffffffffffffffffffff16021790555050565b60008082848115156112ad57fe5b0490508091505092915050565b60006112fc6112e9600a6112db85604001514261135790919063ffffffff16565b61129f90919063ffffffff16565b83602001516113c790919063ffffffff16565b90506113078261138e565b151561130f57fe5b816000015173ffffffffffffffffffffffffffffffffffffffff166108fc829081150290604051600060405180830381858888f19350505050151561135357600080fd5b5050565b600082821115151561136557fe5b818303905092915050565b600080828401905083811015151561138457fe5b8091505092915050565b6000806113bf83602001513073ffffffffffffffffffffffffffffffffffffffff163161129f90919063ffffffff16565b119050919050565b60008060008414156113dc57600091506113fb565b82840290508284828115156113ed57fe5b041415156113f757fe5b8091505b50929150505600a165627a7a72305820e30332b7245514fd12d4b2f4f9b9411ff2977b0ac8ee04f27c4483670c1614e60029",
  "source": "/*\n * 智能合约 第四课作业\n * 宁达非\n *\n */\n\n\npragma solidity ^0.4.4;\n\nimport './SafeMath.sol';\nimport './Ownable.sol';\n\ncontract Payroll is Ownable {\n\n    using SafeMath for uint256;\n    struct Employee {\n        address id;\n        uint salary;\n        uint lastPayday;\n    }\n    uint constant                   payDuration = 10 seconds;\n    address                         owner;\n    uint                            totalsalary = 0;\n    mapping(address => Employee)    public employees;\n\n\n    /////////////////////////////////////////////////////////////////\n    /////////////////////////// Modifier ////////////////////////////\n    /////////////////////////////////////////////////////////////////\n\n    modifier employeeExist(address emplid){\n        var checkempl =employees[emplid];\n        assert(checkempl.id != 0x0);\n        _;\n    }\n\n    modifier idNotExist(address emplid){\n        var checkempl =employees[emplid];\n        assert(checkempl.id == 0x0);\n        _;\n    }\n\n    /////////////////////////////////////////////////////////////////\n    /////////////////////////// Functions ///////////////////////////\n    /////////////////////////////////////////////////////////////////\n\n    function _partialPaid(Employee empl) private{\n        uint payment = empl.salary.mul((now.sub(empl.lastPayday)).div(payDuration));\n        assert(_hasEnoughToPayPersonally(empl));\n        empl.id.transfer(payment);\n    }\n\n    function addFund() payable public returns (uint) {\n        return this.balance;\n    }\n\n    function calculateRunway() public view returns (uint) {\n        return this.balance.div(totalsalary);\n    }\n\n    function hasEnoughFund() public view returns (bool) {\n        return calculateRunway() >= 1;\n    }\n\n    function _hasEnoughToPayPersonally(Employee empl) private view returns(bool){\n        return this.balance.div(empl.salary) > 0;\n    }\n\n    function addEmployee(address emplid, uint sal) onlyOwner idNotExist(emplid) public {\n        var checkempl = employees[emplid];\n        totalsalary = totalsalary.add(sal * 1 ether);\n        employees[emplid] = Employee(emplid, sal * 1 ether, now);\n    }\n\n    function removeEmployee(address emplid) onlyOwner employeeExist(emplid) public {\n        var checkempl =employees[emplid];\n        _partialPaid(employees[emplid]);\n        totalsalary = totalsalary.sub(employees[emplid].salary);\n        delete employees[emplid];\n    }\n\n    function getPaid() employeeExist(msg.sender) public{\n        var checkempl =employees[msg.sender];\n        uint nextPayday = checkempl.lastPayday + payDuration;\n        if (nextPayday > now){revert();}\n        assert(_hasEnoughToPayPersonally(checkempl));\n        employees[msg.sender].lastPayday = nextPayday;\n        employees[msg.sender].id.transfer(employees[msg.sender].salary);\n    }\n\n    function updateEmployee(address emplid, uint Sal) onlyOwner employeeExist(emplid) public {\n        var checkempl = employees[emplid];\n        _partialPaid(employees[emplid]);\n        totalsalary = totalsalary.sub(employees[emplid].salary);\n        totalsalary = totalsalary.add(Sal * 1 ether);\n        employees[emplid].salary = Sal * 1 ether;\n        employees[emplid].lastPayday = now;\n        return;\n    }\n\n    function checkEmployee(address emplid) public view returns (uint salary, uint lastPayday) {\n        var employee = employees[emplid];\n        salary = employee.salary;\n        lastPayday = employee.lastPayday;\n    }\n\n    function changePaymentAddress (address newEmplid) employeeExist(msg.sender) idNotExist (newEmplid) public {\n        var checkempl = employees[msg.sender];\n        employees[msg.sender].id = newEmplid;\n    }\n\n}\n\n\n",
  "sourcePath": "/home/node/code/payroll/contracts/Payroll.sol",
  "compiler": {
    "name": "solc",
    "version": "0.4.19+commit.c4cbbb05.Emscripten.clang"
  },
  "schemaVersion": "2.0.0",
  "updatedAt": "2018-03-25T13:52:40.124Z"
}