{
  "contractName": "Payroll",
  "abi": [
    {
      "constant": true,
      "inputs": [],
      "name": "owner",
      "outputs": [
        {
          "name": "",
          "type": "address"
        }
      ],
      "payable": false,
      "stateMutability": "view",
      "type": "function"
    },
    {
      "constant": true,
      "inputs": [
        {
          "name": "",
          "type": "address"
        }
      ],
      "name": "employees",
      "outputs": [
        {
          "name": "id",
          "type": "address"
        },
        {
          "name": "salary",
          "type": "uint256"
        },
        {
          "name": "lastPayday",
          "type": "uint256"
        }
      ],
      "payable": false,
      "stateMutability": "view",
      "type": "function"
    },
    {
      "constant": false,
      "inputs": [
        {
          "name": "newOwner",
          "type": "address"
        }
      ],
      "name": "transferOwnership",
      "outputs": [],
      "payable": false,
      "stateMutability": "nonpayable",
      "type": "function"
    },
    {
      "anonymous": false,
      "inputs": [
        {
          "indexed": true,
          "name": "previousOwner",
          "type": "address"
        },
        {
          "indexed": true,
          "name": "newOwner",
          "type": "address"
        }
      ],
      "name": "OwnershipTransferred",
      "type": "event"
    },
    {
      "constant": true,
      "inputs": [
        {
          "name": "index",
          "type": "uint256"
        }
      ],
      "name": "checkEmployee",
      "outputs": [
        {
          "name": "employeeId",
          "type": "address"
        },
        {
          "name": "salary",
          "type": "uint256"
        },
        {
          "name": "lastPayday",
          "type": "uint256"
        }
      ],
      "payable": false,
      "stateMutability": "view",
      "type": "function"
    },
    {
      "constant": false,
      "inputs": [
        {
          "name": "employeeId",
          "type": "address"
        },
        {
          "name": "salary",
          "type": "uint256"
        }
      ],
      "name": "addEmployee",
      "outputs": [],
      "payable": false,
      "stateMutability": "nonpayable",
      "type": "function"
    },
    {
      "constant": false,
      "inputs": [
        {
          "name": "employeeId",
          "type": "address"
        }
      ],
      "name": "removeEmployee",
      "outputs": [],
      "payable": false,
      "stateMutability": "nonpayable",
      "type": "function"
    },
    {
      "constant": false,
      "inputs": [
        {
          "name": "employeeId",
          "type": "address"
        },
        {
          "name": "salary",
          "type": "uint256"
        }
      ],
      "name": "updateEmployee",
      "outputs": [],
      "payable": false,
      "stateMutability": "nonpayable",
      "type": "function"
    },
    {
      "constant": false,
      "inputs": [],
      "name": "addFund",
      "outputs": [
        {
          "name": "",
          "type": "uint256"
        }
      ],
      "payable": true,
      "stateMutability": "payable",
      "type": "function"
    },
    {
      "constant": true,
      "inputs": [],
      "name": "calculateRunway",
      "outputs": [
        {
          "name": "",
          "type": "uint256"
        }
      ],
      "payable": false,
      "stateMutability": "view",
      "type": "function"
    },
    {
      "constant": true,
      "inputs": [],
      "name": "hasEnoughFund",
      "outputs": [
        {
          "name": "",
          "type": "bool"
        }
      ],
      "payable": false,
      "stateMutability": "view",
      "type": "function"
    },
    {
      "constant": false,
      "inputs": [],
      "name": "getPaid",
      "outputs": [],
      "payable": false,
      "stateMutability": "nonpayable",
      "type": "function"
    },
    {
      "constant": true,
      "inputs": [],
      "name": "checkInfo",
      "outputs": [
        {
          "name": "balance",
          "type": "uint256"
        },
        {
          "name": "runway",
          "type": "uint256"
        },
        {
          "name": "employeeCount",
          "type": "uint256"
        }
      ],
      "payable": false,
      "stateMutability": "view",
      "type": "function"
    }
  ],
  "bytecode": "0x606060405260006002556000600355336000806101000a81548173ffffffffffffffffffffffffffffffffffffffff021916908373ffffffffffffffffffffffffffffffffffffffff1602179055506113928061005d6000396000f3006060604052600436106100ba576000357c0100000000000000000000000000000000000000000000000000000000900463ffffffff16806323fed09e146100bf5780634ec19512146100ec5780635e91d8ec1461011557806385a96258146101575780638da5cb5b1461018e57806396b02696146101e3578063a2f09dfa14610254578063cf41d6f814610272578063d067894714610287578063d108177a1461030e578063e7fd9a1314610347578063f2fde38b14610389575b600080fd5b34156100ca57600080fd5b6100d26103c2565b604051808215151515815260200191505060405180910390f35b34156100f757600080fd5b6100ff6103d3565b6040518082815260200191505060405180910390f35b341561012057600080fd5b610155600480803573ffffffffffffffffffffffffffffffffffffffff16906020019091908035906020019091905050610406565b005b341561016257600080fd5b61016a61061f565b60405180848152602001838152602001828152602001935050505060405180910390f35b341561019957600080fd5b6101a161065e565b604051808273ffffffffffffffffffffffffffffffffffffffff1673ffffffffffffffffffffffffffffffffffffffff16815260200191505060405180910390f35b34156101ee57600080fd5b6102046004808035906020019091905050610683565b604051808473ffffffffffffffffffffffffffffffffffffffff1673ffffffffffffffffffffffffffffffffffffffff168152602001838152602001828152602001935050505060405180910390f35b61025c61071d565b6040518082815260200191505060405180910390f35b341561027d57600080fd5b61028561073c565b005b341561029257600080fd5b6102be600480803573ffffffffffffffffffffffffffffffffffffffff169060200190919050506108a7565b604051808473ffffffffffffffffffffffffffffffffffffffff1673ffffffffffffffffffffffffffffffffffffffff168152602001838152602001828152602001935050505060405180910390f35b341561031957600080fd5b610345600480803573ffffffffffffffffffffffffffffffffffffffff169060200190919050506108f1565b005b341561035257600080fd5b610387600480803573ffffffffffffffffffffffffffffffffffffffff16906020019091908035906020019091905050610c71565b005b341561039457600080fd5b6103c0600480803573ffffffffffffffffffffffffffffffffffffffff16906020019091905050610f3d565b005b6000806103cd6103d3565b11905090565b60006104016002543073ffffffffffffffffffffffffffffffffffffffff163161109290919063ffffffff16565b905090565b60008060009054906101000a900473ffffffffffffffffffffffffffffffffffffffff1673ffffffffffffffffffffffffffffffffffffffff163373ffffffffffffffffffffffffffffffffffffffff1614151561046357600080fd5b826000600560008373ffffffffffffffffffffffffffffffffffffffff1673ffffffffffffffffffffffffffffffffffffffff168152602001908152602001600020905060008160000160009054906101000a900473ffffffffffffffffffffffffffffffffffffffff1673ffffffffffffffffffffffffffffffffffffffff16141515156104ee57fe5b600560008673ffffffffffffffffffffffffffffffffffffffff1673ffffffffffffffffffffffffffffffffffffffff16815260200190815260200160002092506105ae83606060405190810160405290816000820160009054906101000a900473ffffffffffffffffffffffffffffffffffffffff1673ffffffffffffffffffffffffffffffffffffffff1673ffffffffffffffffffffffffffffffffffffffff168152602001600182015481526020016002820154815250506110ad565b6105c7836001015460025461114a90919063ffffffff16565b6002819055506105e8670de0b6b3a76400008561116390919063ffffffff16565b8360010181905550428360020181905550610612836001015460025461119e90919063ffffffff16565b6002819055505050505050565b60008060003073ffffffffffffffffffffffffffffffffffffffff16319250600354905060006002541115610659576106566103d3565b91505b909192565b6000809054906101000a900473ffffffffffffffffffffffffffffffffffffffff1681565b60008060008060048581548110151561069857fe5b906000526020600020900160009054906101000a900473ffffffffffffffffffffffffffffffffffffffff169350600560008573ffffffffffffffffffffffffffffffffffffffff1673ffffffffffffffffffffffffffffffffffffffff16815260200190815260200160002090508060010154925080600201549150509193909250565b60003073ffffffffffffffffffffffffffffffffffffffff1631905090565b600080336000600560008373ffffffffffffffffffffffffffffffffffffffff1673ffffffffffffffffffffffffffffffffffffffff168152602001908152602001600020905060008160000160009054906101000a900473ffffffffffffffffffffffffffffffffffffffff1673ffffffffffffffffffffffffffffffffffffffff16141515156107ca57fe5b600560003373ffffffffffffffffffffffffffffffffffffffff1673ffffffffffffffffffffffffffffffffffffffff16815260200190815260200160002093506108236014856002015461119e90919063ffffffff16565b9250428310151561083057fe5b8284600201819055508360000160009054906101000a900473ffffffffffffffffffffffffffffffffffffffff1673ffffffffffffffffffffffffffffffffffffffff166108fc85600101549081150290604051600060405180830381858888f1935050505015156108a157600080fd5b50505050565b60056020528060005260406000206000915090508060000160009054906101000a900473ffffffffffffffffffffffffffffffffffffffff16908060010154908060020154905083565b60008060008060009054906101000a900473ffffffffffffffffffffffffffffffffffffffff1673ffffffffffffffffffffffffffffffffffffffff163373ffffffffffffffffffffffffffffffffffffffff1614151561095157600080fd5b836000600560008373ffffffffffffffffffffffffffffffffffffffff1673ffffffffffffffffffffffffffffffffffffffff168152602001908152602001600020905060008160000160009054906101000a900473ffffffffffffffffffffffffffffffffffffffff1673ffffffffffffffffffffffffffffffffffffffff16141515156109dc57fe5b600560008773ffffffffffffffffffffffffffffffffffffffff1673ffffffffffffffffffffffffffffffffffffffff1681526020019081526020016000209450610a9c85606060405190810160405290816000820160009054906101000a900473ffffffffffffffffffffffffffffffffffffffff1673ffffffffffffffffffffffffffffffffffffffff1673ffffffffffffffffffffffffffffffffffffffff168152602001600182015481526020016002820154815250506110ad565b610ab5856001015460025461114a90919063ffffffff16565b600281905550600560008773ffffffffffffffffffffffffffffffffffffffff1673ffffffffffffffffffffffffffffffffffffffff168152602001908152602001600020600080820160006101000a81549073ffffffffffffffffffffffffffffffffffffffff0219169055600182016000905560028201600090555050610b4a600160035461114a90919063ffffffff16565b600381905550610b59866111bc565b9350935060008310151515610b6a57fe5b600483815481101515610b7957fe5b906000526020600020900160006101000a81549073ffffffffffffffffffffffffffffffffffffffff02191690556004600160048054905003815481101515610bbe57fe5b906000526020600020900160009054906101000a900473ffffffffffffffffffffffffffffffffffffffff16600484815481101515610bf957fe5b906000526020600020900160006101000a81548173ffffffffffffffffffffffffffffffffffffffff021916908373ffffffffffffffffffffffffffffffffffffffff160217905550610c5b600160048054905061114a90919063ffffffff16565b600481610c6891906112e9565b50505050505050565b60008060009054906101000a900473ffffffffffffffffffffffffffffffffffffffff1673ffffffffffffffffffffffffffffffffffffffff163373ffffffffffffffffffffffffffffffffffffffff16141515610cce57600080fd5b826000600560008373ffffffffffffffffffffffffffffffffffffffff1673ffffffffffffffffffffffffffffffffffffffff168152602001908152602001600020905060008160000160009054906101000a900473ffffffffffffffffffffffffffffffffffffffff1673ffffffffffffffffffffffffffffffffffffffff16141515610d5857fe5b600560008673ffffffffffffffffffffffffffffffffffffffff1673ffffffffffffffffffffffffffffffffffffffff1681526020019081526020016000209250610dc8610db7670de0b6b3a76400008661116390919063ffffffff16565b60025461119e90919063ffffffff16565b6002819055506060604051908101604052808673ffffffffffffffffffffffffffffffffffffffff168152602001610e11670de0b6b3a76400008761116390919063ffffffff16565b815260200142815250600560008773ffffffffffffffffffffffffffffffffffffffff1673ffffffffffffffffffffffffffffffffffffffff16815260200190815260200160002060008201518160000160006101000a81548173ffffffffffffffffffffffffffffffffffffffff021916908373ffffffffffffffffffffffffffffffffffffffff1602179055506020820151816001015560408201518160020155905050610ecd600160035461119e90919063ffffffff16565b60038190555060048054806001018281610ee79190611315565b9160005260206000209001600087909190916101000a81548173ffffffffffffffffffffffffffffffffffffffff021916908373ffffffffffffffffffffffffffffffffffffffff160217905550505050505050565b6000809054906101000a900473ffffffffffffffffffffffffffffffffffffffff1673ffffffffffffffffffffffffffffffffffffffff163373ffffffffffffffffffffffffffffffffffffffff16141515610f9857600080fd5b600073ffffffffffffffffffffffffffffffffffffffff168173ffffffffffffffffffffffffffffffffffffffff1614151515610fd457600080fd5b8073ffffffffffffffffffffffffffffffffffffffff166000809054906101000a900473ffffffffffffffffffffffffffffffffffffffff1673ffffffffffffffffffffffffffffffffffffffff167f8be0079c531659141344cd1fd0a4f28419497f9722a3daafe3b4186f6b6457e060405160405180910390a3806000806101000a81548173ffffffffffffffffffffffffffffffffffffffff021916908373ffffffffffffffffffffffffffffffffffffffff16021790555050565b60008082848115156110a057fe5b0490508091505092915050565b60006110ef60146110e16110ce85604001514261114a90919063ffffffff16565b856020015161116390919063ffffffff16565b61109290919063ffffffff16565b90506110fa82611299565b151561110257fe5b816000015173ffffffffffffffffffffffffffffffffffffffff166108fc829081150290604051600060405180830381858888f19350505050151561114657600080fd5b5050565b600082821115151561115857fe5b818303905092915050565b60008060008414156111785760009150611197565b828402905082848281151561118957fe5b0414151561119357fe5b8091505b5092915050565b60008082840190508381101515156111b257fe5b8091505092915050565b60008060008090505b600480549050811015611292578373ffffffffffffffffffffffffffffffffffffffff166004828154811015156111f857fe5b906000526020600020900160009054906101000a900473ffffffffffffffffffffffffffffffffffffffff1673ffffffffffffffffffffffffffffffffffffffff1614156112855760048181548110151561124f57fe5b906000526020600020900160009054906101000a900473ffffffffffffffffffffffffffffffffffffffff168192509250611293565b80806001019150506111c5565b5b50915091565b600080826020015114156112b057600190506112e4565b60006112e083602001513073ffffffffffffffffffffffffffffffffffffffff163161109290919063ffffffff16565b1190505b919050565b8154818355818115116113105781836000526020600020918201910161130f9190611341565b5b505050565b81548183558181151161133c5781836000526020600020918201910161133b9190611341565b5b505050565b61136391905b8082111561135f576000816000905550600101611347565b5090565b905600a165627a7a723058203e2821d81f73953d008f34ea7d491e678ce0e1f7a28d0937da43e3598c1b54670029",
  "source": "pragma solidity ^0.4.14;\n\nimport './SafeMath.sol';\nimport './Ownable.sol';\n\ncontract Payroll is Ownable {\n    using SafeMath for uint;\n    struct Employee {\n        address id;\n        uint salary;\n        uint lastPayday;\n    }\n    \n    uint constant                   payDuration = 20 seconds;\n    address                         owner;\n    uint                            totalSalary = 0;\n    uint                            totalEmployee = 0;\n    address[]                       employeeList;\n    mapping(address => Employee)    public employees;\n\n\n    /////////////////////////////////////////////////////////////////\n    /////////////////////////// Modifier ////////////////////////////\n    /////////////////////////////////////////////////////////////////\n\n    modifier employeeExit(address employeeId) {\n        var employee = employees[employeeId];\n        assert(employee.id != 0x0);\n        _;\n    }\n\n    modifier idNotExist(address emplid){\n        var employee = employees[emplid];\n        assert(employee.id == 0x0);\n        _;\n    }\n\n    /////////////////////////////////////////////////////////////////\n    /////////////////////////// Functions ///////////////////////////\n    /////////////////////////////////////////////////////////////////\n\n\n    function _hasEnoughToPayPersonally(Employee employee) private view returns(bool){\n        if(employee.salary == 0){\n            return true;\n        }else{\n            return this.balance.div(employee.salary) > 0;\n        }\n    }\n\n    function _partialPaid(Employee employee) private {\n        uint payment = employee.salary.mul(now.sub(employee.lastPayday)).div(payDuration);\n        assert(_hasEnoughToPayPersonally(employee));\n        employee.id.transfer(payment);\n    }\n\n    function _findEmployee(address employeeId) private view returns (address, uint){\n        for(uint i=0;i<employeeList.length;i++){\n            if(employeeList[i]==employeeId){\n                return (employeeList[i], i);\n            }\n        }\n    }\n\n    function checkEmployee(uint index) public view returns (address employeeId, uint salary, uint lastPayday) {\n        employeeId = employeeList[index];\n        var employee = employees[employeeId];\n        salary = employee.salary;\n        lastPayday = employee.lastPayday;\n    }\n\n    \n    function addEmployee(address employeeId, uint salary) onlyOwner idNotExist(employeeId) public {\n        var employee = employees[employeeId];\n        totalSalary = totalSalary.add(salary.mul(1 ether));\n        employees[employeeId] = Employee(employeeId, salary.mul(1 ether), now);\n        totalEmployee = totalEmployee.add(1);\n        employeeList.push(employeeId);\n    }\n    \n    function removeEmployee(address employeeId) onlyOwner employeeExit(employeeId) public {\n        var employee = employees[employeeId];\n\n        _partialPaid(employee);\n        totalSalary = totalSalary.sub(employee.salary);\n        delete employees[employeeId];\n        totalEmployee = totalEmployee.sub(1);\n\n        var (employee_temp_address, index)=_findEmployee(employeeId);\n        assert(index>=0);\n        delete employeeList[index];\n        //填充刚才删除的空，把最后一个元素移动到刚才的位置\n        employeeList[index]=employeeList[employeeList.length-1];\n        employeeList.length=employeeList.length.sub(1);\n    }\n    \n    function updateEmployee(address employeeId, uint salary) onlyOwner employeeExit(employeeId) public {\n        var employee = employees[employeeId];\n\n        _partialPaid(employee);\n        totalSalary = totalSalary.sub(employee.salary);\n        employee.salary = salary.mul(1 ether);\n        employee.lastPayday = now;\n        totalSalary = totalSalary.add(employee.salary);\n    }\n    \n    function addFund() payable public returns (uint) {\n        return this.balance;\n    }\n    \n    function calculateRunway() public view returns (uint) {\n        return this.balance.div(totalSalary);\n    }\n    \n    function hasEnoughFund() public view returns (bool) {\n        return calculateRunway() > 0;\n    }\n    \n    function getPaid() employeeExit(msg.sender) public {\n        var employee = employees[msg.sender];\n\n        uint nextPayday = employee.lastPayday.add(payDuration);\n        assert(nextPayday < now);\n\n        employee.lastPayday = nextPayday;\n        employee.id.transfer(employee.salary);\n    }\n\n    function checkInfo() public view returns (uint balance, uint runway, uint employeeCount) {\n        balance = this.balance;\n        employeeCount = totalEmployee;\n\n        if (totalSalary > 0) {\n            runway = calculateRunway();\n        }\n    }\n}",
  "sourcePath": "/home/node/code/payroll/contracts/Payroll.sol",
  "compiler": {
    "name": "solc",
    "version": "0.4.19+commit.c4cbbb05.Emscripten.clang"
  },
  "schemaVersion": "2.0.0",
  "updatedAt": "2018-03-28T12:34:35.189Z"
}